:020000040800F2
:100000000050002091490008014700080D470008F2
:1000100013470008194700081F47000800000000A8
:10002000000000000000000000000000254700085C
:1000300031470008000000003D470008494700081C
:10004000D9490008D9490008D9490008D949000808
:10005000D9490008D9490008D9490008D9490008F8
:10006000D9490008D9490008D9490008D9490008E8
:10007000D9490008D9490008D9490008D9490008D8
:10008000D9490008D9490008D9490008D9490008C8
:1000900055470008D9490008D949000869470008B0
:1000A000D9490008D9490008D9490008D9490008A8
:1000B00081470008D9490008D9490008D9490008F2
:1000C000D9490008D9490008D9490008D949000888
:1000D000D949000895470008A9470008D9490008F0
:1000E000D9490008D9490008D94900080000000092
:1000F0000000000000000000000000000000000000
:0C01000000000000000000005FF808F1A3
:1001100010B5054C237833B9044B13B10448AFF341
:1001200000800123237010BDF801002000000000B2
:10013000E8D3000808B5034B1BB103490348AFF3EC
:10014000008008BD00000000FC010020E8D300088A
:10015000034613F8012B002AFBD1181A0138704707
:1001600081F0004102E000BF83F0004330B54FEA68
:1001700041044FEA430594EA050F08BF90EA020FD5
:100180001FBF54EA000C55EA020C7FEA645C7FEA68
:10019000655C00F0E2804FEA5454D4EB5555B8BF8B
:1001A0006D420CDD2C4480EA020281EA030382EAFC
:1001B000000083EA010180EA020281EA0303362D8E
:1001C00088BF30BD11F0004F4FEA01314FF4801C61
:1001D0004CEA113102D0404261EB410113F0004F73
:1001E0004FEA03334CEA133302D0524263EB43032A
:1001F00094EA050F00F0A780A4F10104D5F1200EC8
:100200000DDB02FA0EFC22FA05F2801841F1000122
:1002100003FA0EF2801843FA05F359410EE0A5F1F6
:1002200020050EF1200E012A03FA0EFC28BF4CF027
:10023000020C43FA05F3C01851EBE37101F00045DD
:1002400007D54FF0000EDCF1000C7EEB00006EEBEA
:100250000101B1F5801F1BD3B1F5001F0CD3490874
:100260005FEA30004FEA3C0C04F101044FEA4452CB
:1002700012F5800F80F09A80BCF1004F08BF5FEA52
:10028000500C50F1000041EB045141EA050130BD32
:100290005FEA4C0C404141EB0101013C28BFB1F544
:1002A000801FE9D291F0000F04BF01460020B1FA8F
:1002B00081F308BF2033A3F10B03B3F120020CDA62
:1002C0000C3208DD02F1140CC2F10C0201FA0CF040
:1002D00021FA02F10CE002F11402D8BFC2F1200CA5
:1002E00001FA02F120FA0CFCDCBF41EA0C0190405B
:1002F000E41AA2BF01EB0451294330BD6FEA0404A4
:100300001F3C1CDA0C340EDC04F11404C4F120028E
:1003100020FA04F001FA02F340EA030021FA04F3A0
:1003200045EA030130BDC4F10C04C4F1200220FAF7
:1003300002F001FA04F340EA0300294630BD21FA35
:1003400004F0294630BD94F0000F83F4801306BFFB
:1003500081F480110134013D4EE77FEA645C18BFEF
:100360007FEA655C29D094EA050F08BF90EA020F86
:1003700005D054EA000C04BF1946104630BD91EA7E
:10038000030F1EBF0021002030BD5FEA545C05D181
:100390004000494128BF41F0004130BD14F58004C0
:1003A0003CBF01F5801130BD01F0004545F0FE4134
:1003B00041F470014FF0000030BD7FEA645C1ABF69
:1003C000194610467FEA655C1CBF0B46024650EAA0
:1003D000013406BF52EA033591EA030F41F40021CC
:1003E00030BD00BF90F0000F04BF0021704730B552
:1003F0004FF4806404F132044FF000054FF0000127
:1004000050E700BF90F0000F04BF0021704730B5E7
:100410004FF4806404F1320410F0004548BF4042BC
:100420004FF000013EE700BF42004FEAE2014FEA11
:1004300031014FEA02701FBF12F07F4393F07F4FEC
:1004400081F06051704732F07F4208BF704793F0EF
:100450007F4F04BF41F40021704730B54FF4607402
:1004600001F0004521F000411CE700BF50EA010205
:1004700008BF704730B54FF000050AE050EA0102AE
:1004800008BF704730B511F0004502D5404261EB1E
:1004900041014FF4806404F132045FEA915C3FF45F
:1004A000D8AE4FF003025FEADC0C18BF03325FEAFC
:1004B000DC0C18BF033202EBDC02C2F1200300FAAD
:1004C00003FC20FA02F001FA03FE40EA0E0021FAD2
:1004D00002F11444BDE600BF70B54FF0FF0C4CF4C0
:1004E000E06C1CEA11541DBF1CEA135594EA0C0F72
:1004F00095EA0C0F00F0DEF82C4481EA030621EAAD
:100500004C5123EA4C5350EA013518BF52EA0335E7
:1005100041F4801143F4801338D0A0FB02CE4FF099
:100520000005E1FB02E506F00042E0FB03E54FF0C9
:100530000006E1FB03569CF0000F18BF4EF0010EC1
:10054000A4F1FF04B6F5007F64F5407404D25FEABD
:100550004E0E6D4146EB060642EAC62141EA555170
:100560004FEAC52040EA5E504FEACE2EB4F1FD0CB2
:1005700088BFBCF5E06F1ED8BEF1004F08BF5FEA30
:10058000500E50F1000041EB045170BD06F00046E2
:1005900046EA010140EA020081EA0301B4EB5C048F
:1005A000C2BFD4EB0C0541EA045170BD41F4801187
:1005B0004FF0000E013C00F3AB8014F1360FDEBFAC
:1005C000002001F0004170BDC4F10004203C35DA88
:1005D0000C341BDC04F11404C4F1200500FA05F30B
:1005E00020FA04F001FA05F240EA020001F00042AC
:1005F00021F0004110EBD37021FA04F642EB060122
:100600005EEA430E08BF20EAD37070BDC4F10C044B
:10061000C4F1200500FA04F320FA05F001FA04F20F
:1006200040EA020001F0004110EBD37041F10001FB
:100630005EEA430E08BF20EAD37070BDC4F1200506
:1006400000FA05F24EEA020E20FA04F301FA05F26E
:1006500043EA020321FA04F001F0004121FA04F216
:1006600020EA020000EBD3705EEA430E08BF20EAE6
:10067000D37070BD94F0000F0FD101F00046400020
:1006800041EB010111F4801F08BF013CF7D041EAA2
:10069000060195F0000F18BF704703F000465200A6
:1006A00043EB030313F4801F08BF013DF7D043EA77
:1006B0000603704794EA0C0F0CEA135518BF95EA2D
:1006C0000C0F0CD050EA410618BF52EA4306D1D1B4
:1006D00081EA030101F000414FF0000070BD50EAD3
:1006E000410606BF1046194652EA430619D094EA5D
:1006F0000C0F02D150EA013613D195EA0C0F05D147
:1007000052EA03361CBF104619460AD181EA03019A
:1007100001F0004141F0FE4141F470014FF0000052
:1007200070BD41F0FE4141F4780170BD70B54FF0ED
:10073000FF0C4CF4E06C1CEA11541DBF1CEA13556D
:1007400094EA0C0F95EA0C0F00F0A7F8A4EB05044F
:1007500081EA030E52EA03354FEA013100F0888046
:100760004FEA03334FF0805545EA131343EA12630F
:100770004FEA022245EA111545EA10654FEA0026C4
:100780000EF000419D4208BF964244F1FD0404F57D
:10079000407402D25B084FEA3202B61A65EB0305D9
:1007A0005B084FEA32024FF480104FF4002CB6EB96
:1007B000020E75EB030E22BFB61A754640EA0C0016
:1007C0005B084FEA3202B6EB020E75EB030E22BF56
:1007D000B61A754640EA5C005B084FEA3202B6EB97
:1007E000020E75EB030E22BFB61A754640EA9C0056
:1007F0005B084FEA3202B6EB020E75EB030E22BF26
:10080000B61A754640EADC0055EA060E18D04FEAE3
:10081000051545EA16754FEA06164FEAC30343EA83
:1008200052734FEAC2025FEA1C1CC0D111F4801F50
:100830000BD141EA00014FF000004FF0004CB6E749
:1008400011F4801F04BF01430020B4F1FD0C88BFE8
:10085000BCF5E06F3FF6AFAEB5EB030C04BFB6EBF3
:10086000020C5FEA500C50F1000041EB045170BDE6
:100870000EF0004E4EEA113114EB5C04C2BFD4EB13
:100880000C0541EA045170BD41F480114FF0000E97
:10089000013C90E645EA060E8DE60CEA135594EA13
:1008A0000C0F08BF95EA0C0F3FF43BAF94EA0C0F16
:1008B0000AD150EA01347FF434AF95EA0C0F7FF48B
:1008C00025AF104619462CE795EA0C0F06D152EADF
:1008D00003353FF4FDAE1046194622E750EA4106C3
:1008E00018BF52EA43067FF4C5AE50EA41047FF4D4
:1008F0000DAF52EA43057FF4EBAE12E74FF0FF3C39
:1009000006E000BF4FF0010C02E000BF4FF0010C09
:100910004DF804CD4FEA410C7FEA6C5C4FEA430C82
:1009200018BF7FEA6C5C1BD001B050EA410C0CBFD1
:1009300052EA430C91EA030F02BF90EA020F002033
:10094000704710F1000F91EA030F58BF994208BF9A
:1009500090422CBFD8176FEAE37040F00100704757
:100960004FEA410C7FEA6C5C02D150EA013C07D1AE
:100970004FEA430C7FEA6C5CD6D152EA033CD3D0F9
:100980005DF8040B704700BF8446104662468C46F3
:100990001946634600E000BF01B5FFF7B7FF002826
:1009A00048BF10F1000F01BD4DF808EDFFF7F4FF4F
:1009B0000CBF012000205DF808FB00BF4DF808EDDA
:1009C000FFF7EAFF34BF012000205DF808FB00BFFD
:1009D0004DF808EDFFF7E0FF94BF012000205DF81F
:1009E00008FB00BF4DF808EDFFF7CEFF94BF0120D4
:1009F00000205DF808FB00BF4DF808EDFFF7C4FFCD
:100A000034BF012000205DF808FB00BF4FEA410C15
:100A10007FEA6C5C02D150EA013C0AD14FEA430CF8
:100A20007FEA6C5C02D152EA033C02D14FF0000035
:100A300070474FF0010070474FEA410212F5001273
:100A400015D211D56FF47873B3EB625212D94FEA15
:100A5000C12343F0004343EA505311F0004F23FAFF
:100A600002F018BF404270474FF00000704750EA54
:100A7000013005D111F0004008BF6FF00040704711
:100A80004FF00000704700BF4FEA4102B2F1E0436F
:100A900024BFB3F5001CDCF1FE5C0DD901F0004C65
:100AA0004FEAC0024CEA5070B2F1004F40EB8300B5
:100AB00008BF20F00100704711F0804F21D113F1E1
:100AC0003872BCBF01F00040704741F480114FEA1A
:100AD0005252C2F11802C2F1200C10FA0CF320FAA3
:100AE00002F018BF40F001004FEAC1234FEAD323C0
:100AF00003FA0CFC40EA0C0023FA02F34FEA43032A
:100B0000CCE77FEA625307D150EA01331EBF4FF0B2
:100B1000FE4040F44000704701F0004040F0FE40CD
:100B200040F40000704700BF80F0004002E000BFCA
:100B300081F0004142001FBF5FEA410392EA030FC8
:100B40007FEA226C7FEA236C6AD04FEA1262D2EB12
:100B50001363C1BFD218414048404140B8BF5B4217
:100B6000192B88BF704710F0004F40F4000020F0B0
:100B70007F4018BF404211F0004F41F4000121F0C6
:100B80007F4118BF494292EA030F3FD0A2F1010210
:100B900041FA03FC10EB0C00C3F1200301FA03F14E
:100BA00000F0004302D5494260EB4000B0F5000F71
:100BB00013D3B0F1807F06D340084FEA310102F130
:100BC0000102FE2A51D2B1F1004F40EBC25008BFE2
:100BD00020F0010040EA03007047490040EB0000AC
:100BE000013A28BFB0F5000FEDD2B0FA80FCACF1AD
:100BF000080CB2EB0C0200FA0CF0AABF00EBC250DA
:100C000052421843BCBFD0401843704792F0000FC7
:100C100081F4000106BF80F400000132013BB5E71A
:100C20004FEA41037FEA226C18BF7FEA236C21D090
:100C300092EA030F04D092F0000F08BF08467047F5
:100C400090EA010F1CBF0020704712F07F4F04D1C3
:100C5000400028BF40F00040704712F100723CBFD6
:100C600000F50000704700F0004343F0FE4040F400
:100C7000000070477FEA226216BF08467FEA2363BE
:100C80000146420206BF5FEA412390EA010F40F4A9
:100C9000800070474FF0000304E000BF10F00043F5
:100CA00048BF40425FEA000C08BF704743F09643DC
:100CB00001464FF000001CE050EA010208BF7047F7
:100CC0004FF000030AE000BF50EA010208BF70477E
:100CD00011F0004302D5404261EB41015FEA010C93
:100CE00002BF84460146002043F0B64308BFA3F18B
:100CF0008053A3F50003BCFA8CF2083AA3EBC2536D
:100D000010DB01FA02FC634400FA02FCC2F120028B
:100D1000BCF1004F20FA02F243EB020008BF20F0C2
:100D20000100704702F1200201FA02FCC2F1200228
:100D300050EA4C0021FA02F243EB020008BF20EA1D
:100D4000DC7070474FF0FF0C1CEAD0521EBF1CEA4B
:100D5000D15392EA0C0F93EA0C0F6FD01A4480EA39
:100D6000010C400218BF5FEA41211ED04FF0006322
:100D700043EA501043EA5111A0FB01310CF000404E
:100D8000B1F5000F3EBF490041EAD3715B0040EA74
:100D9000010062F17F02FD2A1DD8B3F1004F40EB44
:100DA000C25008BF20F00100704790F0000F0CF017
:100DB000004C08BF49024CEA502040EA51207F3ADB
:100DC000C2BFD2F1FF0340EAC250704740F40000B6
:100DD0004FF00003013A5DDC12F1190FDCBF00F0A7
:100DE00000407047C2F10002410021FA02F1C2F155
:100DF000200200FA02FC5FEA310040F1000053EAF1
:100E00004C0308BF20EADC70704792F0000F00F03E
:100E1000004C02BF400010F4000F013AF9D040EA44
:100E20000C0093F0000F01F0004C02BF490011F4D8
:100E3000000F013BF9D041EA0C018FE70CEAD153D6
:100E400092EA0C0F18BF93EA0C0F0AD030F0004C56
:100E500018BF31F0004CD8D180EA010000F000400A
:100E6000704790F0000F17BF90F0004F084691F0C8
:100E7000000F91F0004F14D092EA0C0F01D1420202
:100E80000FD193EA0C0F03D14B0218BF084608D1CB
:100E900080EA010000F0004040F0FE4040F4000015
:100EA000704740F0FE4040F4400070474FF0FF0CA8
:100EB0001CEAD0521EBF1CEAD15392EA0C0F93EAEF
:100EC0000C0F69D0A2EB030280EA010C49024FEA41
:100ED000402037D04FF0805343EA111143EA1013FA
:100EE0000CF000408B4238BF5B0042F17D024FF4B2
:100EF000000C8B4224BF5B1A40EA0C00B3EB510F8D
:100F000024BFA3EB510340EA5C00B3EB910F24BF75
:100F1000A3EB910340EA9C00B3EBD10F24BFA3EBFA
:100F2000D10340EADC001B0118BF5FEA1C1CE0D1C2
:100F3000FD2A3FF650AF8B4240EBC25008BF20F075
:100F4000010070470CF0004C4CEA50207F32C2BFC9
:100F5000D2F1FF0340EAC250704740F400004FF066
:100F60000003013A37E792F0000F00F0004C02BF97
:100F7000400010F4000F013AF9D040EA0C0093F061
:100F8000000F01F0004C02BF490011F4000F013BBB
:100F9000F9D041EA0C0195E70CEAD15392EA0C0F23
:100FA00008D142027FF47DAF93EA0C0F7FF470AF5B
:100FB000084676E793EA0C0F04D14B023FF44CAF9E
:100FC00008466EE730F0004C18BF31F0004CCAD133
:100FD00030F000427FF45CAF31F000437FF43CAF6F
:100FE0005FE700BF4FF0FF3C06E000BF4FF0010C91
:100FF00002E000BF4FF0010C4DF804CD4FEA400273
:101000004FEA41037FEA226C18BF7FEA236C11D0BC
:1010100001B052EA530C18BF90EA010F58BFB2EB6F
:10102000030088BFC81738BF6FEAE17018BF40F0EF
:10103000010070477FEA226C02D15FEA402C05D1A3
:101040007FEA236CE4D15FEA412CE1D05DF8040B28
:10105000704700BF844608466146FFE70FB5FFF7BB
:10106000C9FF002848BF10F1000F0FBD4DF808ED73
:10107000FFF7F4FF0CBF012000205DF808FB00BF64
:101080004DF808EDFFF7EAFF34BF012000205DF8BE
:1010900008FB00BF4DF808EDFFF7E0FF94BF01200B
:1010A00000205DF808FB00BF4DF808EDFFF7D2FF08
:1010B00094BF012000205DF808FB00BF4DF808ED4B
:1010C000FFF7C8FF34BF012000205DF808FB00BF18
:1010D0004FEA4002B2F1FE4F0FD34FF09E03B3EB45
:1010E00012620DD94FEA002343F0004310F0004F85
:1010F00023FA02F018BF404270474FF000007047DB
:1011000012F1610F01D1420205D110F0004008BF79
:101110006FF0004070474FF00000704780B582B01C
:1011200000AF7860391D0A230122074808F05BFDF3
:101130000346002B02D04FF0FF3300E07B681846D7
:101140000837BD4680BD00BFE403002080B500AF76
:10115000384B1B781A46384B1A60374B01225A60BD
:10116000354B0022DA60344B00229A60324B082261
:101170001A61314B00221A75304B24221A70304B01
:101180001A78304B1B781343DAB22F4B1B7813437A
:10119000DAB22E4B1B781343DAB22D4B1B78134374
:1011A000DAB22C4B1B781343DAB22B4B1B78134368
:1011B000DAB22A4B1B781343DBB2002B03D01F4B50
:1011C00000225A7003E0264B1A781C4B5A70254BAC
:1011D0001B78002B03D0194B01229A7002E0174BA9
:1011E00000229A70204B1B78002B03D0134B012256
:1011F000DA7002E0114B0022DA70104B00221A71F3
:101200000C4B1A780D4B5A71184B1B78002B03D0DE
:101210000A4B01229A7102E0084B00229A71074B97
:101220002322DA71124B054A0349124804F044FBA9
:1012300000BF80BD70040020F004002008050020DD
:101240008D0400208E0400208F04002090040020D4
:1012500091040020920400209304002094040020B4
:101260006E0400207E0400207F0400207D04002006
:10127000100500207402002080B582B000AF7860B5
:10128000524B534A0021786804F0F0FB0346002BD0
:1012900001D002F099FA4D4B5B79013B032B00F230
:1012A000838001A252F823F0B9120008F512000859
:1012B000311300086D130008464B1B78012B75D0C5
:1012C000424B9B79012B03D1434B01221A7002E060
:1012D000414B00221A703D4B9B78012B03D13F4BB1
:1012E00001221A7002E03D4B00221A703C4B002292
:1012F0001A805BE0374B1B78022B59D0334B9B791C
:10130000012B03D1374B01221A7002E0354B00222A
:101310001A702E4B9B78012B03D1334B01221A708C
:1013200002E0314B00221A70304B00221A803FE05D
:10133000284B1B78032B3DD0244B9B79012B03D1E9
:101340002B4B01221A7002E0294B00221A701F4B0E
:101350009B78012B03D1274B01221A7002E0254B09
:1013600000221A70244B00221A8023E0194B1B78AC
:10137000042B21D0154B9B79012B03D11F4B01224C
:101380001A7002E01D4B00221A70104B9B78012B43
:1013900003D11B4B01221A7002E0194B00221A7074
:1013A000184B00221A8007E000BF06E000BF04E0EF
:1013B00000BF02E000BF00E000BF044B5A78124BB0
:1013C0001A7000BF0837BD4680BD00BF3005002041
:1013D0001405002070040020910400208D040020DA
:1013E00084040020920400208E0400208604002043
:1013F000930400208F04002088040020940400201F
:10140000900400208A0400206E040020B0B588B04B
:1014100000AF78600023FB6105F0B0F80023FB60AB
:10142000124B1B687B610123BB610023FB6107F149
:101430001C0207F10C031146184605F087F90B4B07
:1014400019687B68DA171C46154622462B46012090
:1014500005F024F805F0B8F8044B1B681B889BB214
:101460007B6000BF2037BD46B0BD00BF0800002034
:10147000B0B588B000AF78600023FB6105F07EF85E
:101480000023FB60124B1B687B610123BB610023BF
:10149000FB6107F11C0207F10C031146184605F029
:1014A00055F90B4B19687B68DA171C46154622461E
:1014B0002B46012004F0F2FF05F086F8044B1B6870
:1014C0001B889BB27B6000BF2037BD46B0BD00BF0C
:1014D0000C000020B0B588B000AF78600023FB613D
:1014E00005F04CF80023FB60124B1B687B61012365
:1014F000BB610023FB6107F11C0207F10C031146DD
:10150000184605F023F90B4B19687B68DA171C465F
:10151000154622462B46012004F0C0FF05F054F882
:10152000044B1B681B889BB27B6000BF2037BD4605
:10153000B0BD00BF1000002080B582B000AF002316
:10154000FB714FF48041104805F02CFB0346002B43
:1015500003D1FB7943F00103FB714FF400410A48CA
:1015600005F020FB0346002B03D1FB7943F0020377
:10157000FB71FB790133FB71FB7903F00F03DBB2E5
:1015800018460837BD4680BD00100140000000002D
:1015900080B500AF584B1B68584A12681146184670
:1015A000FFF76EFD0346002B13D0534B1B68544AC4
:1015B000126811461846FFF781FD0346002B08D03C
:1015C000504B1B681846FFF721FF4F4B00221A7043
:1015D00058E0494B1B684D4A126811461846FFF700
:1015E0006DFD0346002B10D0434B1B68444A126824
:1015F00011461846FFF74EFD0346002B05D0414B20
:101600001B6801333F4A13603CE03B4B1B683C4A7C
:10161000126811461846FFF733FD0346002B05D02C
:10162000384B1B680A33374A13602BE0324B1B6878
:10163000374A126811461846FFF740FD0346002B53
:1016400005D0304B1B680A3B2E4A13601AE02A4B28
:101650001B682F4A126811461846FFF711FD034612
:10166000002B0FD0244B1B68244A126811461846E1
:10167000FFF71AFD0346002B04D0224B1B68013BE9
:10168000204A13601F4B1B68632B14DD1D4B1B6826
:10169000643B1846FEF7B6FE15A3D3E90023FEF718
:1016A0001BFF02460B4610461946FFF7EDF90346AD
:1016B000184A136017E0134B1B68632B13DC114BA4
:1016C0001B68643B1846FEF79DFE09A3D3E900237F
:1016D000FEF702FF02460B4610461946FFF7D4F903
:1016E00003460C4A136000BF80BD00BFAFF300800B
:1016F0007B14AE47E17A843F9C040020A4040020C0
:10170000A8040020140000207C040020AC04002069
:10171000B00400203C05002080B582B000AF20213D
:10172000124805F03FFA0346FB71FB79002B14D1F8
:101730000F4B1B78002B10D10E4B1B6801330D4A49
:1017400013600C4B1B680C4A93420AD9084B0122C8
:101750001A70084B00221A6003E0064B00221A6040
:1017600000BF00BF0837BD4680BD00BF000C014070
:101770007C0400207404002020A1070080B500AF85
:10178000FFF7DAFE03461A46264B1A70254B1A78E5
:10179000254B1A70244B1B78013B032B3ED801A22A
:1017A00052F823F0B5170008CF170008E917000812
:1017B000031800081D4B1E4A1A601E4B1E4A1A6071
:1017C0001E4B1F4A1A601F4B1F4A1A6027E0174B17
:1017D0001E4A1A60174B1E4A1A60184B1D4A1A609F
:1017E000184B1D4A1A601AE0104B1C4A1A60114B24
:1017F0001B4A1A60114B1B4A1A60124B1A4A1A6094
:101800000DE00A4B194A1A600A4B194A1A600B4B31
:10181000184A1A600B4B184A1A6000E000BF00BF5C
:1018200080BD00BF6F04002070040020A4040020CD
:1018300075932040A80400208B6C1F40AC0400204E
:101840009A991940B0040020666626402DB23540B2
:10185000448B344052B82E401F853B40BC744B40F3
:10186000D34D4A40E17A4440AE47514075936040C1
:101870008B6C5F409A9959406666664080B400AFB1
:101880006E4B1B8801339AB26C4B1A806C4B1B88D1
:1018900001339AB26A4B1A806A4B1B8801339AB2A1
:1018A000684B1A80684B1B8801339AB2664B1A80CA
:1018B000664B1B78013B032B00F2948001A252F887
:1018C00023F000BFD5180008191900085D19000899
:1018D000A11900085A4B1B88142B03D95C4B012219
:1018E0001A7002E05A4B00221A70564B1B88142BB8
:1018F00003D9584B01221A7002E0564B00221A708D
:10190000514B1B88142B03D9534B01221A706AE0E8
:10191000514B00221A7066E0484B1B88142B03D9E8
:101920004E4B01221A7002E04C4B00221A70454BBC
:101930001B88142B03D9474B01221A7002E0454B38
:1019400000221A70404B1B88142B03D9424B0122F2
:101950001A7048E0404B00221A7044E0374B1B8855
:10196000142B03D93D4B01221A7002E03B4B00229D
:101970001A70334B1B88142B03D9354B01221A7074
:1019800002E0334B00221A702F4B1B88142B03D913
:10199000314B01221A7026E02F4B00221A7022E0F0
:1019A000264B1B88142B03D92C4B01221A7002E002
:1019B0002A4B00221A70224B1B88142B03D9244B6C
:1019C00001221A7002E0224B00221A701D4B1B8864
:1019D000142B03D91F4B01221A7004E01D4B002267
:1019E0001A7000E000BF1D4B1A78194B1B78134387
:1019F000DAB2184B1B781343DAB2174B1B78134338
:101A0000DBB2002B02D0164B01221A70134B1B784D
:101A1000002B0ED10E4B1B78002B0AD10D4B1B78DF
:101A2000002B06D10C4B1B78002B02D10C4B002253
:101A30001A7000BFBD4680BC704700BF8404002000
:101A400086040020880400208A04002070040020FE
:101A500081040020820400208304002080040020F0
:101A60007F04002080B582B000AF0221324805F02B
:101A700099F80346FB71FB79002B30D12F4B1B6883
:101A800001332E4A13602D4B1B68062B4FDD2C4B68
:101A900001221A702B4B1B78013B032B1AD801A291
:101AA00052F823F0B51A0008BD1A0008C51A00083C
:101AB000CD1A0008244B01221A700CE0234B01229E
:101AC0001A7008E0224B01221A7004E0214B012217
:101AD0001A7000E000BF194B00221A6027E0174B74
:101AE00000221A60164B00221A70164B1B78013B1D
:101AF000032B1BD801A252F823F000BF0D1B0008D6
:101B0000151B00081D1B0008251B00080E4B00229A
:101B10001A700CE00D4B00221A7008E00C4B0022EA
:101B20001A7004E00B4B00221A7000E000BF00BFE7
:101B30000837BD4680BD00BF000801404C050020AD
:101B40007E040020700400208D0400208E040020FC
:101B50008F0400209004002080B584B000AF0346BD
:101B6000FB714A4B1B78012B04D1494BFB60494B5D
:101B7000BB601AE0454B1B78022B04D1464BFB603F
:101B8000464BBB6011E0414B1B78032B04D1444B07
:101B9000FB60444BBB6008E03C4B1B78042B04D13A
:101BA000414BFB604FF08143BB60404B1B681946C3
:101BB000F868FFF783FA0346002B08D13B4B1B68FC
:101BC0001946B868FFF75CFA0346002B31D0384B52
:101BD0001B680133364A1360354B1B68062B50DDFA
:101BE000344B01221A70294B1B78013B032B1BD865
:101BF00001A252F823F000BF091C0008111C0008C4
:101C0000191C0008211C00082B4B01221A700CE043
:101C10002A4B01221A7008E0294B01221A7004E0B5
:101C2000284B01221A7000E000BF214B00221A60ED
:101C300027E01F4B00221A601E4B00221A70134B24
:101C40001B78013B032B1BD801A252F823F000BFE5
:101C5000611C0008691C0008711C0008791C000840
:101C6000154B00221A700CE0144B00221A7008E089
:101C7000134B00221A7004E0124B00221A7000E08D
:101C800000BF00BF1037BD4680BD00BF70040020FC
:101C90000000104000004040B81E2540B81E5540CE
:101CA00048E13A4048E16A40000050409C0400206E
:101CB000500500207D0400209104002092040020A3
:101CC000930400209404002080B584B000AF7860B5
:101CD00001214A4804F095FF002001F025FE03464B
:101CE000474A1360012001F01FFE0346454A136076
:101CF000022001F019FE0346434A1360424B1B6861
:101D00004FF000011846FFF7CFF90346002B15D01E
:101D10003D4B1B683D491846FFF7B2F90346002BBF
:101D20000CD03B4B1B68384A126811461846FEF728
:101D3000FFFE03461A46374B1A601AE0324B1B6807
:101D400032491846FFF7BAF90346002B11D02E4B43
:101D50001B6819463048FEF7EBFE03461A462C4B2B
:101D60001B6819461046FEF7E5FE03461A46294B46
:101D70001A60284B1B68294A126811461846FEF75C
:101D8000D9FE03464FF080411846FFF78FF803460F
:101D90001A46224B1A60214B1B681846FFF798F928
:101DA00003461F4A13601D4B1B681E491846FEF769
:101DB000C9FF03461846FFF78BF90346184A93609C
:101DC000174B9B68184A82FB03125111DA178A1AC3
:101DD000642101FB02F29A1A13465B0013445B0074
:101DE000124A82FB03129210DB17D31A0C4A53607B
:101DF0000023FB7300BF1037BD4680BD000C0140BF
:101E00004405002048050020980400200000964367
:101E10003C050020A00400200000B4439C040020E6
:101E2000B40400200000C8421F85EB516766666657
:101E300080B584B000AF0346FB804FF480711C482E
:101E400004F0B0FE0346FB734FF40071184804F031
:101E5000A9FE0346BB73FB7B002B11D1154B93F9F5
:101E60000030DBB20133DBB25AB2124B1A70114BA5
:101E700093F90030062B17DD0E4B00221A7013E089
:101E8000BB7B002B10D10B4B93F90030DBB2013B35
:101E9000DBB25AB2074B1A70064B93F90030002B95
:101EA00002DA044B06221A7000BF1037BD4680BD0F
:101EB000000C01408C04002080B58CB004AF0023DE
:101EC000FB610023BB6100233B610023FB820023F5
:101ED000BB820023FB7302F081FD01F04DF901F09C
:101EE0009BFB01F065FA01F0BFFA01F041FB01F044
:101EF00069FB01F09DF901F089FA01F023FA01F084
:101F0000D5F901F0E7FA01220121A74804F061FEAA
:101F100001F0E2FE4FF4FA7001F074FCFFF72EFCC2
:101F20000122A249A24807F0F0FE0122A149A248DD
:101F300007F0EBFEA14B1B681B889BB21A46A04B17
:101F40001A60A04B1B681B889BB2DAB29E4B1A70BA
:101F50009E4B1B681B889BB2DAB29D4B1A706420A3
:101F600001F050FC964B1B68B3F5004F06DD944B17
:101F70001B68A3F57F43FF3B914A1360904B1B689E
:101F8000632B14DD8E4B1B68643B1846FEF73AFA50
:101F900083A3D3E90023FEF79FFA02460B461046BF
:101FA0001946FEF771FD03468A4A136017E0844B19
:101FB0001B68642B13DC824B1B68643B1846FEF7DE
:101FC00021FA77A3D3E90023FEF786FA02460B46EF
:101FD00010461946FEF758FD03467E4A13607A4BB9
:101FE0001B780A2B02D9784B00221A70784B1B7889
:101FF0000A2B02D9764B00221A7001F06BFC764A4C
:102000003B4692E8030083E803003B46184601F094
:1020100071FD3B46714A7249184601F0ABFD3B46E3
:102020000121184601F028FE142001F0EBFB3B468D
:102030000021184601F020FE3B46684A68491846D0
:1020400001F098FD00BF674803F082F90346002BBA
:10205000F9D1654B00225A61634B00229A61624BB1
:1020600000221A61604B00221A605F4B00225A6006
:102070005D4B00229A605C4B0022DA605A4B0122D1
:10208000DA61594B01221A62574B0E225A62574BA2
:102090001B781A46564B1A60554B01225A60544B16
:1020A0000022DA60524B00229A60514B08221A61DA
:1020B0004F4B00221A754C494E4803F0F0FA4D4838
:1020C00003F0B6FB02214B4803F0E1FD4A4807F05C
:1020D00093F9FFF721FB494B1B78002B00F09E8002
:1020E000FFF756FA464B1B680133454A1360444BD1
:1020F0001B68052B10D1434B00930123424A052155
:10210000052001F0F7FF414B009301233E4A2321B4
:10211000052001F0EFFF40E0394B1B680A2B10D17E
:10212000384B00930123384A0521052001F0E2FFD6
:10213000374B00930123344A2321052001F0DAFFB5
:102140002BE02F4B1B680F2B10D12E4B009301233C
:102150002D4A0521052001F0CDFF2E4B00930123D0
:10216000294A2321052001F0C5FF16E0244B1B68F6
:10217000142B12D1234B00930123234A0521052060
:1021800001F0B8FF244B009301231F4A23210520AF
:1021900001F0B0FF1A4B00221A6001F053FE98E7DD
:1021A0007B14AE47E17A843F000801406C040020B4
:1021B000280400206D040020E40300200800002013
:1021C000140000200C00002040050020100000201A
:1021D000410500203C050020B4D50008C4040020BF
:1021E000C004002014020020C80400207004002055
:1021F000F0040020740200209C0300207C040020D6
:102200007804002078D400080000002080D4000862
:1022100088D4000890D4000898D40008FB690133E2
:10222000FB61FB690A2B7FF654AF0023FB61BB699E
:102230000133BB61BB6940F6C41293427FF649AFDC
:102240000023BB61FB8A83F00103FB82BB8A01335D
:10225000BB82BB8A052B01D90023BB82BB8A002B22
:102260003BD13B460121184601F006FD3B460021CB
:10227000184601F001FD3B46A24AA349184601F069
:1022800079FCA14B1B68A1491846FEF717FF0346CE
:10229000002B0CD09C4B1B689D491846FEF7F0FEA6
:1022A0000346002B03D0984B4FF000021A60954B69
:1022B0001B6898491846FEF701FF0346002B0CD017
:1022C000904B1B6892491846FEF7DAFE0346002B36
:1022D00003D08C4B4FF000021A60BB8A012B40F0F8
:1022E00085868D4B1A788D4B1B781343DAB28C4B55
:1022F0001B781343DAB28B4B1B781343DAB28A4B49
:102300001B781343DAB2894B1B781343DAB2884B3C
:102310001B781343DAB2874B1B781343DAB2864B30
:102320001B781343DBB2002B00F09884834B93F9A6
:102330000030002B68D1012001F0B8FC804B1B68F5
:102340004FF000011846FEF7AFFE0346002B0ED0FB
:102350007C4B1B687B4A5268029201937A4B009334
:1023600001237A4A0521052001F0C4FE13E0754BD4
:102370001B68002BB8BF5B42724A5268002AB8BF84
:10238000524202920193724B009301236F4A05213E
:10239000052001F0AFFE6F4B1B78013B032B00F2D1
:1023A000518401A252F823F0B9230008CD2300087C
:1023B000E1230008F5230008674B00930123634ADB
:1023C0002321052001F096FE00F045BC634B0093ED
:1023D00001235E4A2321052001F08CFE00F03BBC66
:1023E0005F4B00930123594A2321052001F082FE0F
:1023F00000F031BC5B4B00930123544A232105209C
:1024000001F078FE00F027BC4C4B93F90030012B13
:102410002BD1012001F04AFC3B4B1B684FF081415E
:102420001846FEF785FB03461846FDF7FDFF0246FA
:102430000B46CDE902234C4B00930123434A05216F
:10244000052001F057FE2F4B1B681846FDF7ECFFE7
:1024500002460B46CDE90223444B009301233B4A3D
:102460002321052001F046FEF5E3344B93F90030BB
:10247000022B40F08780012001F018FC3C4B0093B8
:102480000123324A0521052001F034FE202139487C
:1024900004F088FB0346FB72FB7A002B07D1364B16
:1024A0001B78012B03D1344B00221A7009E0FB7A10
:1024B000002B06D1304B1B78002B02D12E4B012272
:1024C0001A702D4B1B78002B0DD12C4B0093012340
:1024D0001E4A2321052001F00DFE274B1B781846CC
:1024E000FEF7C6FFB7E3264B00930123174A2321CB
:1024F000052001F0FFFD204B1B781846FEF7B8FFC2
:10250000A9E300BFC4040020C00400200000484329
:10251000000048C20000C8428D0400208E04002044
:102520008F040020900400209104002092040020D9
:1025300093040020940400207F0400208C040020D9
:102540009C040020B4040020A0D400080000002057
:10255000ACD4000870040020B8D40008C0D400082F
:10256000C8D40008D0D40008D8D40008E4D40008A7
:10257000F0D40008000C014040050020F8D4000809
:1025800000D50008944B93F90030032B45D101206E
:1025900001F08CFB914B00930123914A052105200A
:1025A00001F0A8FD20218F4804F0FCFA03463B739C
:1025B0003B7B002B07D18C4B1B78012B03D18A4B23
:1025C00000221A7009E03B7B002B06D1864B1B785A
:1025D000002B02D1844B01221A70834B1B78002BF5
:1025E0000DD1824B009301237D4A2321052001F068
:1025F00081FD7D4B1B781846FEF76CFF2BE37C4B6F
:1026000000930123764A2321052001F073FD764BC8
:102610001B781846FEF75EFF1DE36F4B93F9003001
:10262000042B40F01381012001F040FB714B00931B
:1026300001236B4A0521052001F05CFD6E4B1B78E0
:10264000DB00DAB26D4B1B789B00DBB21344DAB2CD
:102650006B4B1B785B00DBB21344DAB2694B1B781F
:102660001344DAB2684B1A70674B1B780F2B00F2D9
:10267000EB8201A252F823F0B9260008CB2600080D
:10268000DD260008EF2600080127000813270008B0
:102690002527000837270008492700085B2700087E
:1026A0006D2700087F27000891270008A32700084E
:1026B000B5270008C7270008544B00930123484A58
:1026C0002321052001F016FDC5E2514B00930123A3
:1026D000434A2321052001F00DFDBCE24D4B009340
:1026E00001233F4A2321052001F004FDB3E24A4BB8
:1026F000009301233A4A2321052001F0FBFCAAE2C2
:10270000464B00930123364A2321052001F0F2FCB9
:10271000A1E2434B00930123314A2321052001F01C
:10272000E9FC98E23F4B009301232D4A2321052029
:1027300001F0E0FC8FE23C4B00930123284A232167
:10274000052001F0D7FC86E2384B00930123244A90
:102750002321052001F0CEFC7DE2354B00930123BF
:102760001F4A2321052001F0C5FC74E2314B009380
:1027700001231B4A2321052001F0BCFC6BE22E4BF8
:1027800000930123164A2321052001F0B3FC62E2E5
:102790002A4B00930123124A2321052001F0AAFCB1
:1027A00059E2274B009301230D4A2321052001F014
:1027B000A1FC50E2234B00930123094A2321052069
:1027C00001F098FC47E2204B00930123044A2321A7
:1027D000052001F08FFC3EE28C04002008D50008A3
:1027E00000000020000C014041050020F8D4000842
:1027F00000D5000810D500089104002092040020A4
:1028000093040020940400209504002018D50008AB
:1028100020D5000828D5000830D5000838D5000894
:1028200040D5000848D5000850D5000858D5000804
:1028300060D5000868D5000870D5000878D5000874
:1028400080D5000888D5000890D50008B24B93F9D0
:102850000030052B40F0DA80012001F027FAAF4B61
:1028600000930123AE4A0521052001F043FCAD4B46
:102870001B78DB00DAB2AC4B1B789B00DBB2134455
:10288000DAB2AA4B1B785B00DBB21344DAB2A84B76
:102890001B781344DAB2A74B1A70A64B1B780F2B88
:1028A00000F2D48101A252F823F000BFED28000805
:1028B000FF280008112900082329000835290008ED
:1028C00047290008592900086B2900087D290008BC
:1028D0008F290008A1290008B3290008C52900088C
:1028E000D7290008E9290008FB290008924B00932A
:1028F00001238B4A2321052001F0FCFBABE18F4B28
:1029000000930123864A2321052001F0F3FBA2E175
:102910008B4B00930123824A2321052001F0EAFB1F
:1029200099E1884B009301237D4A2321052001F082
:10293000E1FB90E1844B00930123794A2321052098
:1029400001F0D8FB87E1814B00930123744A2321D6
:10295000052001F0CFFB7EE17D4B00930123704AFF
:102960002321052001F0C6FB75E17A4B009301237A
:102970006B4A2321052001F0BDFB6CE1764B0093EF
:102980000123674A2321052001F0B4FB63E1734B67
:1029900000930123624A2321052001F0ABFB5AE199
:1029A0006F4B009301235E4A2321052001F0A2FB17
:1029B00051E16C4B00930123594A2321052001F07A
:1029C00099FB48E1684B00930123554A23210520D8
:1029D00001F090FB3FE1654B00930123504A232116
:1029E000052001F087FB36E1614B009301234C4A3F
:1029F0002321052001F07EFB2DE15E4B0093012396
:102A0000474A2321052001F075FB24E1424B93F94D
:102A10000030062B40F01C81012001F047F9564B95
:102A2000009301233E4A0521052001F063FB534B2F
:102A30001B78DB00DAB2524B1B789B00DBB21344ED
:102A4000DAB2504B1B785B00DBB21344DAB24E4B68
:102A50001B781344DAB24D4B1A704C4B1B780F2B7A
:102A600000F2F88001A252F823F000BFAD2A00085E
:102A7000BF2A0008D12A0008E32A0008F52A000826
:102A8000072B0008912B0008A32B0008B52B00088A
:102A9000C72B0008D92B0008EB2B0008FD2B0008E2
:102AA0000F2C0008212C0008332C0008224B009327
:102AB00001231B4A2321052001F01CFBCBE01F4B07
:102AC00000930123164A2321052001F013FBC2E0E5
:102AD0001B4B00930123124A2321052001F00AFB1E
:102AE000B9E0184B009301230D4A2321052001F082
:102AF00001FBB0E0144B00930123094A2321052078
:102B000001F0F8FAA7E0114B00930123044A2321B6
:102B1000052001F0EFFA9EE08C04002098D5000813
:102B2000000000208D0400208E0400208F0400206F
:102B3000900400209604002018D5000820D5000835
:102B400028D5000830D5000838D5000840D5000841
:102B500048D5000850D5000858D5000860D50008B1
:102B600068D5000870D5000878D5000880D5000821
:102B700088D5000890D50008A0D500088004002062
:102B80008104002082040020830400209704002098
:102B9000A74B00930123A74A2321052001F0AAFA9D
:102BA00059E0A54B00930123A24A2321052001F0FF
:102BB000A1FA50E0A14B009301239E4A2321052056
:102BC00001F098FA47E09E4B00930123994A232194
:102BD000052001F08FFA3EE09A4B00930123954ABD
:102BE0002321052001F086FA35E0974B009301235D
:102BF000904A2321052001F07DFA2CE0934B0093AD
:102C000001238C4A2321052001F074FA23E0904B24
:102C100000930123874A2321052001F06BFA1AE073
:102C20008C4B00930123834A2321052001F062FA93
:102C300011E0894B009301237E4A2321052001F0F6
:102C400059FA08E000BF06E000BF04E000BF02E060
:102C500000BF00E000BF01F0F5F8BEE17F4B93F943
:102C60000030002B66D10023FB73002001F01EF81A
:102C70007B4B1B684FF000011846FEF715FA034620
:102C8000002B0ED0774B1B68764A52680292019354
:102C9000754B00930123674A0521052001F02AFAAC
:102CA00013E0704B1B68002BB8BF5B426D4A526843
:102CB000002AB8BF5242029201936C4B0093012349
:102CC0005C4A0521052001F015FA694B1B78013B90
:102CD000032B00F27F8101A252F823F0ED2C0008B3
:102CE000FF2C0008112D0008232D0008614B0093D4
:102CF0000123504A2321052001F0FCF96BE15E4BD2
:102D0000009301234B4A2321052001F0F3F962E1EE
:102D10005A4B00930123474A2321052001F0EAF989
:102D200059E1574B00930123424A2321052001F02A
:102D3000E1F950E1494B93F90030012B2BD10020F0
:102D400000F0B4FF4F4B1B684FF081411846FDF770
:102D5000EFFE03461846FDF767FB02460B46CDE93A
:102D60000223494B00930123324A0521052001F03B
:102D7000C1F9464B1B681846FDF756FB02460B4649
:102D8000CDE90223424B009301232A4A2321052047
:102D900001F0B0F91FE1314B93F90030022B40F004
:102DA0008380002000F082FF3A4B00930123214AE8
:102DB0000521052001F09EF92021374803F0F2FE9D
:102DC00003467B737B7B002B07D1344B1B78012B95
:102DD00003D1324B00221A7009E07B7B002B06D115
:102DE0002E4B1B78002B02D12C4B01221A702B4B3F
:102DF0001B78002B0DD12A4B009301230D4A232170
:102E0000052001F077F9254B1B781846FEF730FBBB
:102E1000E1E0244B00930123064A2321052001F021
:102E200069F91E4B1B781846FEF722FBD3E000BF62
:102E300048D500080000002050D5000858D50008EB
:102E400060D5000868D5000870D5000878D500085E
:102E500080D5000888D5000890D500088C04002093
:102E60009C040020B4040020A0D40008ACD40008C6
:102E700070040020B8D40008C0D40008C8D40008EA
:102E8000D0D40008C0040020D8D40008C404002016
:102E9000E4D40008F0D40008000C014040050020F4
:102EA000F8D4000800D50008954B93F90030032BA7
:102EB00045D1002000F0FAFE924B00930123924A84
:102EC0000521052001F016F92021904803F06AFE43
:102ED0000346BB73BB7B002B07D18D4B1B78012BAB
:102EE00003D18B4B00221A7009E0BB7B002B06D16B
:102EF000874B1B78002B02D1854B01221A70844B23
:102F00001B78002B0DD1834B009301237E4A232194
:102F1000052001F0EFF87E4B1B781846FEF7DAFA31
:102F200059E07D4B00930123774A2321052001F0CE
:102F3000E1F8774B1B781846FEF7CCFA4BE0704B64
:102F400093F90030042B13D1002000F0AFFE734B37
:102F5000009301236C4A0521052001F0CBF8704B4A
:102F600000930123684A2321052001F0C3F832E0D1
:102F7000634B93F90030052B13D1002000F096FE2F
:102F8000684B00930123604A0521052001F0B2F847
:102F9000634B009301235C4A2321052001F0AAF82A
:102FA00019E0574B93F90030062B14D1002000F0A4
:102FB0007DFE5D4B00930123534A0521052001F05E
:102FC00099F8574B009301234F4A2321052001F024
:102FD00091F800E000BF00F035FF544B1B78184615
:102FE000FEF7BAFDFEF73EFDFEF748FCBB8A032B59
:102FF00029D14F4801F02CFE00BF0A214C4801F0B6
:1030000001FF0346002BF8D1494802F001F80346BE
:103010009AB2484B1A80464801F0C8FE464801F073
:1030200017FE00BF0A21444801F0ECFE0346002BC6
:10303000F8D1414801F0ECFF03469AB23F4B1A80A9
:103040003D4801F0B3FEBB8A042B7FF442A83C4B01
:103050001A783C4B1B781343DAB23B4B1B78134373
:10306000DAB23A4B1B781343DAB2394B1B7813436D
:10307000DAB2384B1B781343DAB2374B1B78134361
:10308000DAB2364B1B781343DAB2354B1B78134355
:10309000DBB2002B09D0334B1B78002B05D001226B
:1030A0000121314803F095FD04E0002201212E4862
:1030B00003F08FFD2D4B1B684FF07E511846FDF736
:1030C000DFFF0346002B08D1294B1B68294918460E
:1030D000FDF7F4FF0346002B09D00D4B1B78002BA6
:1030E00005D001220821094803F073FD04E0002205
:1030F0000821064803F06DFDFEF728F8FEF7E9BF4A
:103100008C04002008D5000800000020000C0140BD
:1031100041050020F8D4000800D50008A8D5000813
:1031200018D5000898D50008A0D500087004002024
:103130001402002038050020440200203A05002037
:103140008D0400208E0400208F04002090040020B5
:103150009104002092040020930400209404002095
:103160007F0400204005002000080140C00400202A
:10317000C404002000008C4280B594B000AF07F179
:10318000280328220021184607F07CFA07F11403CF
:1031900000221A605A609A60DA601A613B1D0022B0
:1031A0001A605A609A60DA600123BB624FF4803380
:1031B000FB6200233B630123BB6302237B644FF468
:1031C0008033BB644FF4E013FB6407F12803184617
:1031D00005F066F80346002B01D000F0F5FA0F2346
:1031E0007B610223BB610023FB614FF480633B6280
:1031F00000237B6207F114030221184605F0D2FA7E
:103200000346002B01D000F0DFFA02237B604FF46D
:103210000043FB603B1D184605F05CFC0346002B99
:1032200001D000F0D1FA00BF5037BD4680BD00008C
:1032300080B584B000AF3B1D00221A605A609A60CE
:10324000184B194A1A60174B00229A60154B01223D
:103250001A73144B00221A75124B4FF46022DA6174
:10326000104B00225A600F4B01221A610D4801F0E9
:1032700017FC0346002B01D000F0A6FA06237B6062
:103280000123BB600023FB603B1D1946054801F08C
:10329000CBFE0346002B01D000F096FA00BF10379A
:1032A000BD4680BD140200200024014080B584B0DA
:1032B00000AF3B1D00221A605A609A601F4B204AE3
:1032C0001A601E4B4FF480729A601C4B01221A73D5
:1032D0001A4B00221A75194B4FF46022DA61174B12
:1032E00000225A60154B02221A61144801F0D8FBE3
:1032F0000346002B01D000F067FA07237B6001230F
:10330000BB600023FB603B1D19460C4801F08CFE9E
:103310000346002B01D000F057FA0223BB603B1D8F
:103320001946064801F080FE0346002B01D000F04C
:103330004BFA00BF1037BD4680BD00BF44020020DD
:103340000028014080B500AF174B184A1A60164B91
:1033500009225A60144B00229A60134B0022DA6053
:10336000114B4FF440321A610F4B4FF400125A6167
:103370000D4B00221A760C4B00225A760A4B002283
:103380009A76094B0022DA76074B00221A77064B11
:1033900001225A77044802F087F80346002B01D037
:1033A00000F012FA00BF80BD7402002000640040EB
:1033B00080B500AF124B134A1A60114B124A5A6083
:1033C0000F4B00229A600E4B0022DA600C4B4FF438
:1033D00080421A610A4B00225A61094B00229A610D
:1033E000074B0022DA61064B00221A62044803F000
:1033F00039FC0346002B01D000F0E6F900BF80BD88
:103400009C02002000540040801A060080B500AFE6
:10341000124B134A1A60114B124A5A600F4B00228A
:103420009A600E4B0022DA600C4B4FF480421A6116
:103430000A4B00225A61094B00229A61074B002275
:10344000DA61064B00221A62044803F00BFC0346C3
:10345000002B01D000F0B8F900BF80BDF0020020C1
:1034600000580040A086010080B500AF174B184AF5
:103470001A60164B4FF482725A60144B00229A6005
:10348000124B0022DA60114B00221A610F4B00220E
:103490005A610E4B4FF400729A610C4B0022DA61B4
:1034A0000A4B00221A62094B00225A62074B002283
:1034B0009A62064B0A22DA62044805F081FC034650
:1034C000002B01D000F080F900BF80BD4403002034
:1034D0000038004080B586B000AF07F10803002235
:1034E0001A605A609A60DA603B4600221A605A609D
:1034F0001E4B4FF080421A601C4B4FF47A725A6098
:103500001A4B00229A60194B4FF4E152DA60174BC4
:1035100000221A61154B80229A61144805F01CFFA5
:103520000346002B01D000F04FF94FF48053BB60ED
:1035300007F1080319460D4806F0B8F80346002BBA
:1035400001D000F041F900233B6000237B603B4643
:103550001946064806F08AFA0346002B01D000F00F
:1035600033F900BF1837BD4680BD00BF9C03002063
:1035700080B500AF114B124A1A60104B4FF416423F
:103580005A600E4B00229A600C4B0022DA600B4B03
:1035900000221A61094B0C225A61084B00229A61E1
:1035A000064B0022DA61054806F0D0FA0346002BEC
:1035B00001D000F009F900BF80BD00BFE403002086
:1035C0000038014080B500AF114B124A1A60104B11
:1035D0004FF496425A600E4B00229A600C4B002228
:1035E000DA600B4B00221A61094B0C225A61084B1E
:1035F00000229A61064B0022DA61054806F0A6FA1D
:103600000346002B01D000F0DFF800BF80BD00BFF3
:10361000280400200044004080B588B000AF07F1C6
:10362000100300221A605A609A60DA60614B9B694D
:10363000604A43F0100393615E4B9B6903F01003F3
:10364000FB60FB685B4B9B695A4A43F02003936124
:10365000584B9B6903F02003BB60BB68554B9B69CB
:10366000544A43F004039361524B9B6903F00403F3
:103670007B607B684F4B9B694E4A43F00803936124
:103680004C4B9B6903F008033B603B68002201211F
:10369000494803F09EFA002241F21301474803F023
:1036A00098FA01220821454803F093FA4FF4404369
:1036B0003B6100237B610023BB6107F110031946C6
:1036C0003F4803F0EBF801233B6101237B610123B9
:1036D000BB610323FB6107F110031946364803F071
:1036E000DDF802233B6100237B610223BB6107F10C
:1036F00010031946304803F0D1F841F203033B614F
:1037000001237B610023BB610223FB6107F11003EE
:1037100019462A4803F0C2F84FF401433B610023E5
:103720007B610023BB6107F110031946224803F0B7
:10373000B5F808233B6101237B610223BB610223AF
:10374000FB6107F1100319461C4803F0A7F810238A
:103750003B6101237B610123BB610223FB6107F114
:1037600010031946154803F099F820233B61002304
:103770007B610023BB6107F1100319460F4803F07A
:103780008DF84FF440733B610E4B7B610023BB61AE
:1037900007F110031946094803F080F800220021C0
:1037A000172002F094FD172002F0ADFD00BF203776
:1037B000BD4680BD0010024000080140000C0140E1
:1037C000001001400000311080B400AF00BFBD46C2
:1037D00080BC704780B500AF01224FF48051024891
:1037E00003F0F7F900BF80BD000C014080B500AFC9
:1037F00000224FF48051024803F0EBF900BF80BD76
:10380000000C014080B584B000AF786001F03EF953
:10381000F86000BF01F03AF90246FB68D21A7B68F3
:103820009A42F7D300BF00BF1037BD4680BD0000ED
:1038300080B586B002AF0346FB710023FB73002303
:10384000BB7307F10E02F91D4FF6FF7300930123BE
:10385000044805F039FBBB7BFB73FB7B1846103734
:10386000BD4680BD4403002080B584B000AF7860C1
:103870000023BB60FFF7BAFF7B681B0EDBB2184664
:10388000FFF7D6FF03463B727B681B0CDBB2184682
:10389000FFF7CEFF03467B727B681B0ADBB218463C
:1038A000FFF7C6FF0346BB727B68DBB21846FFF723
:1038B000BFFF0346FB727B7A9BB21B029AB2BB7AB4
:1038C0009BB21344FB81FFF785FFFB891846103735
:1038D000BD4680BD80B500AFFFF77CFF0120FFF73C
:1038E00091FF0D48FFF7C0FF0120FFF78BFF0B484A
:1038F000FFF7BAFF1920FFF785FF0948FFF7B4FF6C
:103900000748FFF7B1FF0648FFF7AEFF0548FFF78E
:10391000ABFF00BF80BD00BF982000B4380300B4E7
:10392000E50000186F1F00B080B588B000AF0346F7
:10393000FB710023FB834FF00003BB614FF00003DA
:103940003B6100237B610A23FB60FB79002B05D1DF
:103950002B48FFF789FF0346FB8310E0FB79012B1F
:1039600005D12848FFF780FF0346FB8307E0FB797A
:10397000022B04D12448FFF777FF0346FB83FB8B20
:103980001846FDF787F903461846FCF74DFD4FF042
:1039900000021E4BFCF7CAFE02460B4610461946B3
:1039A0004FF000021A4BFCF797FD02460B461046FB
:1039B0001946FDF769F80346BB6000237B6108E008
:1039C000B968B869FDF7B6F80346BB617B69013396
:1039D0007B617A69FB689A42F2DBF868FDF75EF971
:1039E00003461946B869FDF761FA03463B614FF09B
:1039F0000003BB613B6918462037BD4680BD00BF50
:103A0000C7000024CD000028CB00002C0000D040CF
:103A10000080564080B487B000AF78603960FF23E3
:103A2000FB7500233B6120E07A683B6913441A78F8
:103A3000FB7D5340FB750023FB6010E097F91730C6
:103A4000002B06DAFB7D5B00DBB283F03103FB75F4
:103A500002E0FB7D5B00FB75FB680133FB60FB68EC
:103A6000072BEBD93B6901333B613A693B689A42CA
:103A7000DAD3FB7D18461C37BD4680BC704780B545
:103A800086B002AF78600B467B807B881B0A9BB2B6
:103A9000DBB23B737B88DBB27B737B6818687B6827
:103AA0009B885B0099B207F10C021E23009302234E
:103AB00003F01CFA0346002B01D0002300E0012391
:103AC00018461037BD4680BD80B483B000AF0346B2
:103AD0000A46FB711346BB71FB799BB21B029AB27B
:103AE000BB799BB213439BB218460C37BD4680BCD2
:103AF0007047000080B588B004AF78607B681B68B1
:103B00001B6A002B05D0184B184A3821184806F0BC
:103B10005FFD7B6818687B689B885B0099B21E23F9
:103B200002930323019307F10C03009302234FF246
:103B30002D3203F039FD0346002B01D000230EE0A7
:103B400007F10C0302211846FFF764FF0346FB73DD
:103B5000BB7BFA7B9A4201D0002300E00123184688
:103B60001037BD4680BD00BFBCD500087CE9000809
:103B7000FCD5000880B58AB002AFF860B9607A6001
:103B800042F60641F868FFF77AFF0120FFF73AFE98
:103B9000FB681868FB689B885B0099B207F1140208
:103BA0001E230093062303F09FFA0346002B01D047
:103BB000002355E007F1140302211846FFF72AFFFE
:103BC0000346FB7707F11403033302211846FFF77E
:103BD00021FF0346BB77BB7DFA7F9A4203D17B7EF0
:103BE000BA7F9A4201D000233AE03B7D7A7D1146AC
:103BF0001846FFF769FF0346BB83FB7D3A7E1146FB
:103C00001846FFF761FF03467B83B7F91C3018465F
:103C1000FDF744F8034614491846FDF793F80346A8
:103C200012491846FDF742F9034611491846FCF7B8
:103C30007FFF03461A46BB681A607B8B1846FDF768
:103C400029F803460B491846FDF77CF80346074957
:103C50001846FDF72BF903461A467B681A600123C4
:103C600018462037BD4680BD00002F4300FF7F4728
:103C7000000034420000C84280B582B000AF7860D6
:103C80000B46FB70FB78002B06D043F26D01786881
:103C9000FFF7F5FE034605E043F266017868FFF79B
:103CA000EEFE034618460837BD4680BD80B582B09B
:103CB00000AF78607B68002B05D0A7220021782018
:103CC00000F0A4FA04E0A6220021782000F09EFA79
:103CD00000BF0837BD4680BD80B500AF012210216E
:103CE000574802F076FF6420FFF78CFD0022102178
:103CF000534802F06EFF6420FFF784FD012210217B
:103D00004F4802F066FF6420FFF77CFDAE220021E1
:103D1000782000F07BFA20220021782000F076FA4B
:103D200010220021782000F071FAB02200217820C2
:103D300000F06CFAC8220021782000F067FA002217
:103D40000021782000F062FA10220021782000F093
:103D50005DFA40220021782000F058FA81220021EB
:103D6000782000F053FAFF220021782000F04EFA6C
:103D7000A1220021782000F049FAA6220021782013
:103D800000F044FAA8220021782000F03FFA3F22F8
:103D90000021782000F03AFAA4220021782000F0D7
:103DA00035FAD3220021782000F030FA00220021D9
:103DB000782000F02BFAD5220021782000F026FA96
:103DC000F0220021782000F021FAD9220021782069
:103DD00000F01CFA22220021782000F017FADA22E3
:103DE0000021782000F012FA12220021782000F041
:103DF0000DFADB220021782000F008FA4022002191
:103E0000782000F003FA20220021782000F0FEF94B
:103E100002220021782000F0F9F98D22002178207B
:103E200000F0F4F914220021782000F0EFF9AF221D
:103E30000021782000F0EAF900BF184680BD00BFDD
:103E4000000C014080B582B000AF0023FB7121E07F
:103E5000FB79503BDBB21A460021782000F0D6F9FE
:103E600000220021782000F0D1F9102200217820D2
:103E700000F0CCF9FA7913465B0113449B001A4613
:103E8000084B1A4484234021782000F059F9FB792B
:103E90000133FB71FB79072BDAD900BF00BF08376C
:103EA000BD4680BD5405002090B482B000AF0346EB
:103EB000FB800B46BB801346FB70FB88832B54D8DA
:103EC000BB883F2B51D82B4B1B79002B06D0FB789E
:103ED000002B0CBF01230023DBB2FB70FB78012B0E
:103EE00020D1FA88BB88DB0898B201460B465B01FB
:103EF0000B449B001344204AD35C5AB2BB8803F0A6
:103F00000703012101FA03F35BB213435CB2FA88A1
:103F100001460B465B010B449B001344E1B2164A79
:103F2000D15423E0FA88BB88DB0898B201460B46DF
:103F30005B010B449B0013440F4AD35C5AB2BB880D
:103F400003F00703012101FA03F35BB2DB435BB229
:103F500013405CB2FA8801460B465B010B449B00A0
:103F60001344E1B2044AD15400E000BF0837BD4613
:103F700090BC7047740900205405002080B483B0C1
:103F800000AF03460A46FB801346BB80054AFB8808
:103F90001380044ABB88538000BF0C37BD4680BCE9
:103FA000704700BF7409002080B586B000AF03469B
:103FB0003960FB711346BB713A4B1B881A463B684C
:103FC0001B781344832B07DC364B5B881A463B680F
:103FD0005B7813443F2B01DD00235EE000237B610F
:103FE0004BE03B685A68FB79203B3968497801FB14
:103FF00003F319467B690B445B0013441B88FB6089
:1040000000233B6130E0FA683B6902FA03F303F4F2
:104010000043002B10D0234B1A883B699BB21344FA
:1040200098B2204B5A887B699BB213449BB2BA79F1
:104030001946FFF739FF14E01A4B1A883B699BB207
:10404000134498B2174B5A887B699BB2134499B2B8
:10405000BB79002B0CBF01230023DBB21A46FFF70C
:1040600023FF3B6901333B613B681B781A463B6980
:104070009342C8D37B6901337B613B685B781A4606
:104080007B699342ADD3074B1A883B681B789BB280
:1040900013449AB2034B1A80FB7918461837BD4671
:1040A00080BD00BF7409002080B584B000AFF86007
:1040B000B9601346FB7112E0FB681B78FA79B968A6
:1040C0001846FFF771FF03461A46FB681B789A42B1
:1040D00002D0FB681B7808E0FB680133FB60FB68DB
:1040E0001B78002BE8D1FB681B7818461037BD46BB
:1040F00080BD000080B586B000AFBA601A460346A6
:10410000FB810B46BB811346FB7107F124037B61E6
:104110007A69396A094807F08BF8BA89FB89114630
:104120001846FFF72BFFFB791A46B9680348FFF7DB
:10413000BBFF00BF1837BD4680BD00BF7C09002013
:1041400090B5C7B002AF0446084607F58871A1F5DF
:1041500088710A60194607F58873A3F2091322468D
:104160001A7007F58873A3F5857302461A7007F570
:104170008873A3F586730A461A8007F58873A3F53A
:10418000827307F58872A2F5857212781A7000237F
:1041900087F80F3115E097F80F3107F58872A2F50F
:1041A000887212681A4497F80F310133117807F5B5
:1041B0008872A2F58272D15497F80F31013387F8D3
:1041C0000F3197F80F319BB207F58872A2F586720E
:1041D00012889A42DFD807F58873A3F209131B7877
:1041E00099B207F58873A3F586731B8801339BB2D8
:1041F00007F10C020A200090034802F077FE00BF8E
:1042000007F58A77BD4690BD9C02002080B586B038
:1042100002AF0346FB710B46BB7113467B71BB7942
:104220003B737B797B73FB7999B207F10C020A230C
:1042300000930223034802F059FE00BF1037BD4629
:1042400080BD00BF9C02002080B485B000AF154B3C
:104250009B69144A43F001039361124B9B6903F07D
:104260000103BB60BB680F4BDB690E4A43F0805310
:10427000D3610C4BDB6903F080537B607B680A4B96
:104280005B68FB60FB6823F0E063FB60FB6843F066
:104290000073FB60044AFB68536000BF1437BD46DF
:1042A00080BC7047001002400000014080B58AB019
:1042B00000AF786007F1180300221A605A609A6014
:1042C000DA607B681B68284A934222D1274B9B699E
:1042D000264A43F400739361244B9B6903F40073F3
:1042E0007B617B69214B9B69204A43F00403936106
:1042F0001E4B9B6903F004033B613B69C023BB6118
:104300000323FB6107F118031946194802F0C6FAA6
:1043100026E07B681B68174A934221D1134B9B69A7
:10432000124A43F480639361104B9B6903F48063EA
:10433000FB60FB680D4B9B690C4A43F004039361DF
:104340000A4B9B6903F00403BB60BB688023BB611D
:104350000323FB6107F118031946054802F09EFA92
:1043600000BF2837BD4680BD002401400010024038
:10437000000801400028014080B588B000AF786097
:1043800007F1100300221A605A609A60DA607B68B5
:104390001B68204A934239D11F4BDB691E4A43F008
:1043A0000073D3611C4BDB6903F00073FB60FB6897
:1043B000194B9B69184A43F004039361164B9B69A0
:1043C00003F00403BB60BB684FF400633B61002350
:1043D0007B610023BB6107F1100319460F4802F00F
:1043E0005DFA4FF480533B6102237B610323FB6141
:1043F00007F110031946094802F050FA0022002183
:10440000142001F064FF142001F07DFF00BF20376D
:10441000BD4680BD0064004000100240000801401D
:1044200080B58AB000AF786007F1180300221A60E7
:104430005A609A60DA607B681B682B4A934224D1E9
:104440002A4B9B69294A43F008039361274B9B69D8
:1044500003F008037B617B69C023BB611223FB610E
:1044600003237B6207F118031946214802F016FA6C
:104470001E4BDB691D4A43F40013D3611B4BDB6900
:1044800003F400133B613B6929E07B681B68194A10
:10449000934224D1154B9B69144A43F0080393615E
:1044A000124B9B6903F00803FB60FB684FF4406309
:1044B000BB611223FB6103237B6207F118031946DA
:1044C0000B4802F0EBF9094BDB69084A43F480031F
:1044D000D361064BDB6903F48003BB60BB6800BF9C
:1044E0002837BD4680BD00BF005400400010024088
:1044F000000C01400058004080B588B000AF7860E3
:1045000007F1100300221A605A609A60DA607B6833
:104510001B681C4A934231D11B4BDB691A4A43F496
:104520008043D361184BDB6903F48043FB60FB6875
:10453000154B9B69144A43F008039361124B9B6926
:1045400003F00803BB60BB684FF420433B610223C8
:104550007B610323FB6107F1100319460B4802F04E
:104560009DF94FF480433B6100237B610023BB61D5
:1045700007F110031946054802F090F900BF2037F3
:10458000BD4680BD0038004000100240000C0140D4
:1045900080B584B000AF78607B681B68B3F1804F52
:1045A00013D10C4BDB690B4A43F00103D361094B78
:1045B000DB6903F00103FB60FB68002200211C2083
:1045C00001F085FE1C2001F09EFE00BF1037BD46A5
:1045D00080BD00BF0010024080B58AB000AF786097
:1045E00007F1180300221A605A609A60DA607B684B
:1045F0001B683F4A93423AD13E4B9B693D4A43F484
:10460000804393613B4B9B6903F480437B617B69EF
:10461000384B9B69374A43F004039361354B9B69E0
:1046200003F004033B613B694FF40073BB61022359
:10463000FB6103237B6207F1180319462E4802F041
:104640002DF94FF48063BB610023FB6100233B62C3
:1046500007F118031946284802F020F9002200212A
:10466000252001F034FE252001F04DFE3CE07B6862
:104670001B68224A934237D11E4BDB691D4A43F423
:104680000033D3611B4BDB6903F40033FB60FB6831
:10469000184B9B69174A43F004039361154B9B69C0
:1046A00003F00403BB60BB680423BB610223FB610E
:1046B00003237B6207F1180319460F4802F0EEF856
:1046C0000823BB610023FB6100233B6207F1180351
:1046D0001946094802F0E2F800220021262001F0E4
:1046E000F6FD262001F00FFE00BF2837BD4680BD35
:1046F0000038014000100240000801400044004022
:1047000080B400AF00BFBD4680BC704780B400AF2E
:10471000FEE780B400AFFEE780B400AFFEE780B4F0
:1047200000AFFEE780B400AF00BFBD4680BC70475D
:1047300080B400AF00BFBD4680BC704780B400AFFE
:1047400000BFBD4680BC704780B500AF00F08CF95B
:1047500000BF80BD80B500AF024801F0BDFA00BFC8
:1047600080BD00BF7402002080B500AF4FF48070A0
:1047700002F060FA4FF4007002F05CFA00BF80BDF6
:1047800080B500AF024804F089FE00BF80BD00BFC5
:104790009C03002080B500AF024805F0E7FA00BF97
:1047A00080BD00BFE403002080B500AF024805F0E3
:1047B000DDFA00BF80BD00BF2804002080B400AF38
:1047C00001231846BD4680BC704780B582B000AF5B
:1047D0007860396005F01AFF034616221A604FF020
:1047E000FF3318460837BD4680BD80B582B000AFA4
:1047F00078604FF0FF317868FFF7E7FFFEE780B59C
:1048000086B000AFF860B9607A6000237B610AE08F
:10481000AFF300800146BB685A1CBA60CAB21A7076
:104820007B6901337B617A697B689A42F0DB7B6844
:1048300018461837BD4680BD80B586B000AFF86019
:10484000B9607A6000237B6109E0BB685A1CBA60DA
:104850001B781846FCF762FC7B6901337B617A693F
:104860007B689A42F1DB7B6818461837BD4680BDED
:1048700080B584B000AF7860114B1B68002B02D16B
:104880000F4B104A1A600E4B1B68FB600C4B1A68EA
:104890007B6813446A46934207D905F0B7FE034686
:1048A0000C221A604FF0FF3306E0054B1A687B6854
:1048B0001344034A1360FB6818461037BD4680BD99
:1048C00090090020C809002080B483B000AF786050
:1048D0004FF0FF3318460C37BD4680BC704780B49C
:1048E00083B000AF786039603B684FF400525A6083
:1048F000002318460C37BD4680BC704780B483B097
:1049000000AF7860012318460C37BD4680BC704765
:1049100080B485B000AFF860B9607A6000231846B3
:104920001437BD4680BC704780B400AF154B1B6880
:10493000144A43F001031360124B5A681149124B99
:1049400013404B600F4B1B680E4A23F0847323F413
:10495000803313600B4B1B680A4A23F480231360D7
:10496000084B5B68074A23F4FE035360054B4FF482
:104970001F029A60054B4FF000629A6000BFBD466F
:1049800080BC7047001002400000FFF800ED00E01E
:104990000C480D490D4A002302E0D458C45004339A
:1049A000C4188C42F9D30A4A0A4C002301E0136070
:1049B0000432A242FBD3FFF7B7FF05F03FFEFDF73D
:1049C0007BFA704700000020F401002088ED000809
:1049D000F8010020C8090020FEE7000080B500AF04
:1049E000084B1B68074A43F010031360032001F0D3
:1049F00063FC002000F008F8FFF726FC00231846AF
:104A000080BD00BF0020024080B582B000AF78605A
:104A1000124B1A68124B1B7819464FF47A73B3FB8A
:104A2000F1F3B2FBF3F3184601F07BFC0346002BD5
:104A300001D001230EE07B680F2B0AD80022796891
:104A40004FF0FF3001F043FC064A7B6813600023FF
:104A500000E0012318460837BD4680BD180000203D
:104A6000200000201C00002080B400AF054B1B7804
:104A70001A46054B1B681344034A136000BFBD462A
:104A800080BC7047200000209409002080B400AF53
:104A9000024B1B681846BD4680BC70479409002035
:104AA00080B586B000AF78600023FB7500233B61C2
:104AB0000023BB600023FB607B68002B01D1012336
:104AC000BEE07B689B68002B7B689B6A002B09D14A
:104AD0007B680022DA627B68002283F824207868F1
:104AE000FFF7E4FB786800F0F1FB0346FB757B6899
:104AF0009B6A03F01003002B40F09980FB7D002B94
:104B000040F095807B689B6A23F4885323F002036E
:104B100043F002027B689A627B685A687B68DB69B3
:104B20001A437B681B7B5B001343BA681343BB606B
:104B30007B689B68B3F5807F03D07B689B68012B03
:104B400002D14FF4807300E000233A6913433B61C4
:104B50007B681B7D012B19D17B681B7B002B09D146
:104B60007B689B69013B5A033B69134343F4006331
:104B70003B610BE07B689B6A43F020027B689A6292
:104B80007B68DB6A43F001027B68DA627B681B6842
:104B90005B6823F469417B681B683A690A435A6081
:104BA0007B681B689A68284B13407A681268B9685A
:104BB0000B4393607B689B68B3F5807F03D07B6871
:104BC0009B68012B04D17B681B69013B1B05FB60C3
:104BD0007B681B68DB6A23F470017B681B68FA68DA
:104BE0000A43DA627B681B689A68184B1340BA68FC
:104BF0009A420BD17B680022DA627B689B6A23F0C1
:104C0000030343F001027B689A6218E07B689B6AA9
:104C100023F0120343F010027B689A627B68DB6A20
:104C200043F001027B68DA620123FB7507E07B68D1
:104C30009B6A43F010027B689A620123FB75FB7D3F
:104C400018461837BD4680BDFDF7E1FFFE0E1FFF79
:104C500080B584B000AF78600023FB737B6893F865
:104C60002430012B01D1022398E07B68012283F8D4
:104C70002420786800F0D0FA0346FB73FB7B002BFE
:104C800040F087807B689B6A23F4407323F0010324
:104C900043F480727B689A627B681B68414A934246
:104CA00005D1414B5B6803F47023002B15D17B6861
:104CB0009B6A23F480127B689A627B681B685B683E
:104CC00003F48063002B26D07B689B6A23F4405357
:104CD00043F480527B689A621DE07B689B6A43F4D0
:104CE00080127B689A627B681B682F4A934204D0CB
:104CF0007B681B682B4A93420DD12B4B5B6803F4F6
:104D00008063002B07D07B689B6A23F4405343F4F5
:104D100080527B689A627B689B6A03F48053002B05
:104D200006D07B68DB6A23F006027B68DA6202E069
:104D30007B680022DA627B68002283F824207B688B
:104D40001B686FF002021A607B681B689B6803F4A3
:104D50006023B3F5602F13D17B681B68114A93421F
:104D600005D1114B5B6803F47023002B08D17B68DD
:104D70001B689A687B681B6842F4A0029A600CE08A
:104D80007B681B689A687B681B6842F480129A6093
:104D900003E07B68002283F82420FB7B1846103751
:104DA000BD4680BD002801400024014080B584B08C
:104DB00000AF78600023FB737B6893F82430012BED
:104DC00001D102231AE07B68012283F8242078684D
:104DD00000F07CFA0346FB73FB7B002B09D17B6858
:104DE0009B6A23F4885323F0010343F001027B689C
:104DF0009A627B68002283F82420FB7B18461037D8
:104E0000BD4680BD90B587B000AF786039600023A3
:104E10007B610023FB6000233B61FFF737FE786175
:104E20007B681B689B6803F48073002B0BD07B6846
:104E30009B6A43F020027B689A627B68002283F8B9
:104E400024200123D3E07B681B685B6803F4807334
:104E5000002B31D17B681B68DB6A03F47003002BE5
:104E60002AD121E03B68B3F1FF3F1DD03B68002B06
:104E700007D0FFF70BFE02467B69D31A3A689A42C5
:104E800012D27B681B681B6803F00203002B0BD156
:104E90007B689B6A43F004027B689A627B6800220D
:104EA00083F824200323A2E07B681B681B6803F0BF
:104EB0000203002BD6D070E04F4B1C68022003F099
:104EC000BFFE0346B4FBF3F27B681B6819694B4BCA
:104ED0000B40002B18D17B681B68D968484B0B40EE
:104EE000002B11D17B681B681969464B0B40002BC6
:104EF00008D17B681B68D968434B0B40002B01D15C
:104F0000142320E029231EE07B681B6819693D4BB0
:104F10000B40002B06D17B681B68D9683A4B0B40CD
:104F2000002B0DD07B681B681969384B0B40002B98
:104F300008D17B681B68D968344B0B40002B01D12A
:104F4000542300E0FC2302FB03F33B6121E03B68B8
:104F5000B3F1FF3F1AD03B68002B07D0FFF796FD57
:104F600002467B69D31A3A689A420FD2FB683A69C3
:104F70009A420BD97B689B6A43F004027B689A6271
:104F80007B68002283F82420032330E0FB68013390
:104F9000FB60FB683A699A42D9D87B681B686FF05E
:104FA00012021A607B689B6A43F400727B689A6203
:104FB0007B681B689B6803F46023B3F5602F15D1F1
:104FC0007B681B7B002B11D17B689B6A23F480726A
:104FD0007B689A627B689B6A03F48053002B05D13F
:104FE0007B689B6A43F001027B689A620023184643
:104FF0001C37BD4690BD00BF1800002024499224F4
:105000002449920092244912922449004992240092
:1050100080B483B000AF78607B681B68DB6C184697
:105020000C37BD4680BC704780B485B000AF786057
:1050300039600023FB730023BB607B6893F8243046
:10504000012B01D10223DCE07B68012283F82420BC
:105050003B685B68062B1CD87B681B68596B3B68F8
:105060005A6813469B001344053B1F2202FA03F3C0
:10507000DB4319403B6818683B685A6813469B003D
:105080001344053B00FA03F27B681B680A435A632A
:105090003CE03B685B680C2B1CD87B681B68196B79
:1050A0003B685A6813469B001344233B1F2202FAB5
:1050B00003F3DB4319403B6818683B685A681346A2
:1050C0009B001344233B00FA03F27B681B680A43EE
:1050D0001A631BE07B681B68D96A3B685A681346F1
:1050E0009B001344413B1F2202FA03F3DB431940A8
:1050F0003B6818683B685A6813469B001344413B61
:1051000000FA03F27B681B680A43DA623B681B689B
:10511000092B1CD97B681B68D9683B681A68134641
:105120005B0013441E3B072202FA03F3DB431940E2
:105130003B6898683B681A6813465B0013441E3B43
:1051400000FA03F27B681B680A43DA6019E07B68A7
:105150001B6819693B681A6813465B0013440722F1
:1051600002FA03F3DB4319403B6898683B681A680E
:1051700013465B00134400FA03F27B681B680A4382
:105180001A613B681B68102B03D03B681B68112B0E
:1051900032D17B681B681D4A934225D17B681B680E
:1051A0009B6803F40003002B26D17B681B689A6878
:1051B0007B681B6842F400029A603B681B68102BF6
:1051C0001AD1134B1B68134AA2FB03239A0C1346F4
:1051D0009B0013445B00BB6002E0BB68013BBB600B
:1051E000BB68002BF9D107E07B689B6A43F0200283
:1051F0007B689A620123FB737B68002283F824207A
:10520000FB7B18461437BD4680BC70470024014024
:105210001800002083DE1B4380B584B000AF7860A7
:105220000023FB600023BB607B681B689B6803F066
:105230000103012B40D07B681B689A687B681B6860
:1052400042F001029A601F4B1B681F4AA2FB032316
:105250009B0CBB6002E0BB68013BBB60BB68002BE2
:10526000F9D1FFF713FCF8601FE0FFF70FFC0246CF
:10527000FB68D31A022B18D97B681B689B6803F064
:105280000103012B11D07B689B6A43F010027B68FD
:105290009A627B68DB6A43F001027B68DA627B68B2
:1052A000002283F82420012307E07B681B689B68A9
:1052B00003F00103012BD8D1002318461037BD4657
:1052C00080BD00BF1800002083DE1B4380B584B082
:1052D00000AF78600023FB607B681B689B6803F06D
:1052E0000103012B2ED17B681B689A687B681B68C1
:1052F00022F001029A60FFF7C9FBF8601BE0FFF79C
:10530000C5FB0246FB68D31A022B14D97B681B68C5
:105310009B6803F00103012B0DD17B689B6A43F06E
:1053200010027B689A627B68DB6A43F001027B684B
:10533000DA62012307E07B681B689B6803F00103C6
:10534000012BDCD0002318461037BD4680BD00007D
:1053500090B587B000AF78600023FB750023FB6039
:105360007B6893F82430012B01D1022395E07B6800
:10537000012283F824207868FFF7A8FF0346FB7515
:10538000FB7D002B40F084807B689B6A23F488536C
:1053900023F0020343F002027B689A62414B1C68CF
:1053A000022003F04DFC0346B4FBF3F35B00FB600B
:1053B00002E0FB68013BFB60FB68002BF9D17868D9
:1053C000FFF72AFF7B681B689A687B681B6842F0BE
:1053D00008029A60FFF75AFB38611BE0FFF756FBA3
:1053E00002463B69D31A0A2B14D97B681B689B6859
:1053F00003F00803002B0DD07B689B6A23F0120397
:1054000043F010027B689A627B68002283F82420B4
:10541000012342E07B681B689B6803F00803002BB4
:10542000DCD17B681B689A687B681B6842F00402C9
:105430009A60FFF72BFB38611BE0FFF727FB024662
:105440003B69D31A0A2B14D97B681B689B6803F04D
:105450000403002B0DD07B689B6A23F0120343F0FA
:1054600010027B689A627B68002283F82420012363
:1054700013E07B681B689B6803F00403002BDCD1FE
:105480007B689B6A23F0030343F001027B689A6206
:105490007B68002283F82420FB7D18461C37BD461C
:1054A00090BD00BF1800002080B584B000AF7860C8
:1054B0007B68002B01D10123EDE07B6893F820305D
:1054C000DBB2002B02D17868FEF756FF7B681B68C1
:1054D0001A687B681B6842F001021A60FFF7D6FA6F
:1054E000F86012E0FFF7D2FA0246FB68D31A0A2BE3
:1054F0000BD97B685B6A43F400327B685A627B6835
:10550000052283F820200123C5E07B681B685B68C7
:1055100003F00103002BE5D07B681B681A687B68E9
:105520001B6822F002021A60FFF7B0FAF86012E07E
:10553000FFF7ACFA0246FB68D31A0A2B0BD97B683B
:105540005B6A43F400327B685A627B68052283F809
:10555000202001239FE07B681B685B6803F0020347
:10556000002BE5D17B681B7E012B08D17B681B6873
:105570001A687B681B6842F080021A6007E07B684B
:105580001B681A687B681B6822F080021A607B68BF
:105590005B7E012B08D17B681B681A687B681B68DF
:1055A00042F040021A6007E07B681B681A687B685B
:1055B0001B6822F040021A607B689B7E012B08D199
:1055C0007B681B681A687B681B6842F020021A60BF
:1055D00007E07B681B681A687B681B6822F0200262
:1055E0001A607B68DB7E012B08D17B681B681A6818
:1055F0007B681B6822F010021A6007E07B681B685A
:105600001A687B681B6842F010021A607B681B7F77
:10561000012B08D17B681B681A687B681B6842F005
:1056200008021A6007E07B681B681A687B681B68C1
:1056300022F008021A607B685B7F012B08D17B682F
:105640001B681A687B681B6842F004021A6007E056
:105650007B681B681A687B681B6822F004021A606A
:105660007B689A687B68DB681A437B681B691A430E
:105670007B685B6942EA03017B685B685A1E7B6852
:105680001B680A43DA617B6800225A627B68012248
:1056900083F82020002318461037BD4680BD80B413
:1056A00087B000AF786039607B681B687B617B687E
:1056B00093F82030FB74FB7C012B03D0FB7C022B86
:1056C00040F0AA807B69D3F8003243F001027B6985
:1056D000C3F800223B685B6903F01F03012202FA52
:1056E00003F3FB607B69D3F81C22FB68DB431A40A1
:1056F0007B69C3F81C223B68DB69002B23D17B69E3
:10570000D3F80C22FB68DB431A407B69C3F80C22F8
:105710003B68DB6819043B685B689BB23A68526976
:1057200019437B69483243F832103B689B6819047F
:105730003B681B689AB23B685B690A4379694833E6
:10574000DB000B445A603B68DB69012B22D17B698B
:10575000D3F80C22FB681A437B69C3F80C223B6820
:105760001B6819043B685B689BB23A68526919432D
:105770007B69483243F832103B689B6819043B68E8
:10578000DB689AB23B685B690A4379694833DB009E
:105790000B445A603B689B69002B09D17B69D3F8A5
:1057A0000422FB68DB431A407B69C3F8042207E04C
:1057B0007B69D3F80422FB681A437B69C3F804228F
:1057C0003B681B69002B09D17B69D3F81422FB6865
:1057D000DB431A407B69C3F8142207E07B69D3F8E6
:1057E0001422FB681A437B69C3F814223B681B6AC6
:1057F000012B07D17B69D3F81C22FB681A437B6914
:10580000C3F81C227B69D3F8003223F001027B69C4
:10581000C3F80022002306E07B685B6A43F4802221
:105820007B685A62012318461C37BD4680BC70470E
:1058300080B584B000AF78607B6893F82030DBB22D
:10584000012B2ED17B68022283F820207B681B6805
:105850001A687B681B6822F001021A60FFF716F9CC
:10586000F86012E0FFF712F90246FB68D31A0A2B20
:105870000BD97B685B6A43F400327B685A627B68B1
:10588000052283F82020012312E07B681B685B68F7
:1058900003F00103002BE5D17B6800225A6200234C
:1058A00006E07B685B6A43F400227B685A6201234E
:1058B00018461037BD4680BD80B489B000AFF8608F
:1058C000B9607A603B60FB6893F82030FB77FB6837
:1058D0001B689B68BB61FB7F012B03D0FB7F022B06
:1058E00040F0B880BB6903F08063002B0AD1BB692C
:1058F00003F00063002B05D1BB6903F08053002B3C
:1059000000F0A080BB691B0E03F003037B617B6981
:10591000022B07D9FB685B6A43F40002FB685A62FA
:1059200001239EE001227B699A403B681A60BB68B4
:105930009B68002B0DD1BB681B685A05BB68DB68F0
:10594000F96809681A437B6918331B010B441A6014
:105950000FE0BB685B68DA00BB689B681A43BB68F2
:10596000DB68F96809681A437B6918331B010B442B
:105970001A60FB681968BB681A697B6918331B01D8
:105980000B4404331A60BB681B7D012B11D1FB68EB
:105990001A687B6918331B01134404331B68FA68C7
:1059A000116843F480727B6918331B010B44043384
:1059B0001A607B6807331B781A067B6806331B78EE
:1059C0001B041A437B6805331B781B0213437A6858
:1059D000043212781046FA68116843EA00027B69C3
:1059E0001B010B4403F5C6731A607B6803331B78F5
:1059F0001A067B6802331B781B041A437B68013349
:105A00001B781B0213437A6812781046FA681168F3
:105A100043EA00027B691B010B4403F5C4731A605F
:105A2000FB681A687B6918331B0113441B68FA680A
:105A3000116843F001027B6918331B010B441A60A3
:105A400000230EE0FB685B6A43F40012FB685A62B5
:105A5000012306E0FB685B6A43F48022FB685A621C
:105A6000012318462437BD4680BC704780B487B0F8
:105A700000AFF860B9607A603B60FB6893F8203053
:105A8000FB75FB7D012B03D0FB7D022B40F0F380E7
:105A9000BB68002B0ED1FB681B68DB6803F00303B7
:105AA000002B16D1FB685B6A43F40012FB685A6254
:105AB0000123E7E0FB681B681B6903F00303002B6D
:105AC00007D1FB685B6A43F40012FB685A6201234A
:105AD000D8E0FB681A68BB681B331B0113441B68C2
